:100000000C948E000C94AF000C94AF000C94AF00D5
:100010000C94AF000C94AF000C94AF000C94AF00A4
:100020000C94AF000C94AF000C94AF000C94AF0094
:100030000C94AF000C94AF000C94AF000C94AF0084
:100040000C94AF000C94AF000C94AF000C94AF0074
:100050000C94AF000C94AF000C94AF000C94AF0064
:100060000C94AF000C94AF000C94AF000C94AF0054
:100070000C94AF000C94AF000C94AF000C94AF0044
:100080000C94AF000C94AF000C94AF000C94AF0034
:100090000C94AF000C94AF000C94AF000C94AF0024
:1000A0000C94AF000C94AF000C94AF000C94AF0014
:1000B0000C94AF000C94AF000C94AF000C94AF0004
:1000C0000C94AF000C94AF000C94AF000C94AF00F4
:1000D0000C94AF000C94AF000C94AF000C94AF00E4
:1000E0000C94AF000C9485020C9458040C94CC250D
:1000F0000C94F5020C94C6020C944F030C94B700B8
:100100000C94F0010C9458240C947B230C947F27BE
:100110000C9439030C94C8230C943A0211241FBE8A
:10012000CFEFD1E2DEBFCDBF00E00CBF12E0A0E018
:10013000B2E0E2E3F9E500E00BBF02C007900D92E8
:10014000AC36B107D9F722E0ACE6B2E001C01D92AF
:10015000A53BB207E1F70E9479270C94972C0C94E9
:100160000000A0EEB0E0E7EBF0E00C94C1286C01D9
:100170005B017A0180E2F601DE01119601900D9299
:100180008A95E1F7CE0181960E94B702CE018F5B7E
:100190009F4F0E94B10280E2F601DE01AF59BF4FCE
:1001A00001900D928A95E1F7CE018F579F4F0E94E3
:1001B000B7028FE1E80EF11C90E2792E26E0822E44
:1001C000912C01EA10E00C0F1D1F005E1F4F01C0B3
:1001D000962CF701208130E0082C02C03595279538
:1001E0000A94E2F7F22FF1706F2E9F26CE018F5501
:1001F0009F4F0E94B102492DBE016F5D7F4FCE011E
:100200008F559F4F0E94D502492DBE016F597F4FD8
:10021000CE0181960E94D502492DBE016F557F4FB8
:10022000CE018F599F4F0E94D502492DBE016F5BB1
:100230007F4FCE018F559F4F0E94D502492DBE01A1
:100240006F577F4FCE018F5B9F4F0E94D502492D84
:10025000BE016F557F4FCE018F579F4F0E94D50231
:10026000AE014F575F4FBE016F597F4FCE018F5583
:100270009F4F0E945F03AE014F575F4FBE016F5902
:100280007F4FCB010E941209AE014F5B5F4FBE0151
:100290006F5D7F4FCE018F579F4F0E945F03AE016E
:1002A0004F5B5F4FBE016F5D7F4FCB010E94120914
:1002B000AE014F5D5F4FBE016F557F4FCB010E9476
:1002C0003303AE014F575F4FBE016F597F4FCB01D4
:1002D0000E943303BE016F577F4FCB010E94490339
:1002E000BE016F5D7F4FCB010E944903AE014F5DA0
:1002F0005F4FBE016F577F4FC8010E941209B801BE
:10030000CE018F5B9F4F0E94E705AE014F5D5F4FAF
:10031000BE016F5B7F4FCB010E945F03AE014F5B5D
:100320005F4FB801CA010E943303AE014F5D5F4FBA
:10033000BE016F577F4FCA010E943303AE014F5970
:100340005F4FBE016F557F4FCE018F579F4F0E9469
:100350001209BE016F577F4FCB010E944903AE01C6
:100360004F5F5F4FBE016F577F4FCB010E9433033A
:10037000AE014F595F4FBE016F557F4FCA010E94BA
:100380005F03BE016F597F4FCB010E9449038A94DE
:1003900087FE1ECF7A9481E0E81AF108772021F0D9
:1003A00087E0882E962C15CF80E2FE01B196D6010B
:1003B00001900D928A95E1F780E2FE01EF5BFF4F1D
:1003C000D50101900D928A95E1F7C052DF4FEEE022
:1003D0000C94DD28A0E6B0E0E0EFF1E00C94CB282F
:1003E0008C0180E2FB01DE01AF5BBF4F01900D92FB
:1003F0008A95E1F722968FAD2297887F22968FAF5C
:100400002297A1968FADA1978F778064A1968FAF29
:10041000A197BA01CE0181960E94E202AE014F5B24
:100420005F4FBE016F5F7F4FCE0181960E94B1008A
:10043000BE016F5F7F4FCB010E945204AE014F5F40
:100440005F4FBE016F5D7F4FCB010E943303BE0142
:100450006F5D7F4FC8010E94EF0280E090E0C05ABC
:10046000DF4FE4E00C94E728A0E6B0E0EAE3F2E036
:100470000C94CB288C0180E2FB01DE01AF5BBF4F07
:1004800001900D928A95E1F722968FAD2297887F91
:1004900022968FAF2297A1968FADA1978F77806418
:1004A000A1968FAFA19764E072E0CE0181960E9481
:1004B000E202AE014F5B5F4FBE016F5F7F4FCE0127
:1004C00081960E94B100BE016F5F7F4FCB010E94F9
:1004D0005204AE014F5F5F4FBE016F5D7F4FCB0196
:1004E0000E943303BE016F5D7F4FC8010E94EF027F
:1004F00080E090E0C05ADF4FE4E00C94E728A0E2EF
:10050000B0E0E5E8F2E00C94C9287C01BC01CE0122
:1005100001960E94050A81508E010F5D1F4FF70161
:10052000DE0111962D913081232728232327219343
:10053000A017B107B9F7B701CE0101960E94050ACD
:100540008150F701DE0111969D9120819227982319
:10055000922791930A171B07B9F7A096E6E00C942F
:10056000E52820E2FC0111922A95E9F70895FC01A3
:1005700081E081938FE1DF011D928A95E9F708956B
:10058000A0E2B0E0E6ECF2E00C94CD28AB01BE01B5
:100590006F5F7F4F20E2FB0111922A95E9F70E94DD
:1005A0001209A096E2E00C94E9284195DB01FC01D8
:1005B00090E28D912081822784238227819391501C
:1005C000C1F70895DB01FC0120E03D9131932F5FDD
:1005D0002032D9F7FC01278D2F77278F0895A0E4CB
:1005E000B0E0E5EFF2E00C94C9288C0180E2FB0159
:1005F000DE01919601900D928A95E1F77E0181E2EC
:10060000E80EF11CB701CE0101960E94050A815047
:10061000D701FE01319691912C9192279823922730
:100620009D93EE15FF05B9F7B701CE0101960E9423
:10063000050A8150D701FE01319691912C919227A4
:10064000982392279D93EE15FF05B9F780E2FE01EE
:10065000B196D80101900D928A95E1F7C05CDF4F09
:10066000E6E00C94E528A0E4B0E0E9E3F3E00C94C4
:10067000CB288C01CE0101960E946D0ABE016F5FEE
:100680007F4FC8010E94E007C05CDF4FE4E00C949C
:10069000E728A0E4B0E0EFE4F3E00C94CB288C0171
:1006A000CE0101960E947619BE016F5F7F4FC8018F
:1006B0000E94E007C05CDF4FE4E00C94E728DB0118
:1006C000FC01CE01EA0136E24D915991450F41936B
:1006D0004D915991451F41934D915991451F41931A
:1006E0004D915991451F41934D915991451F41930A
:1006F0004D915991451F41934D915991451F4193FA
:100700004D915991451F41934D915991451F4193E9
:100710004D915991451F41934D915991451F4193D9
:100720004D915991451F41934D915991451F4193C9
:100730004D915991451F41934D915991451F4193B9
:100740004D915991451F41934D915991451F4193A9
:100750004D915991451F41934D915991451F419399
:100760004D915991451F41934D915991451F419389
:100770004D915991451F41934D915991451F419379
:100780004D915991451F41934D915991451F419369
:100790004D915991451F41934D915991451F419359
:1007A0004D915991451F41934D915991451F419349
:1007B0004D915991451F41934D915991451F419339
:1007C0004D915991451F41935527551FB097408131
:1007D000539F400D419355274081451F41934081D0
:1007E000451F41934081451F41934081451F4193DF
:1007F0004081451F41934081451F41934081451FE2
:1008000041934081451F41934081451F4193408161
:10081000451F41934081451F41934081451F4193AE
:100820004081451F41934081451F41934081451FB1
:1008300041934081451F41934081451F4193408131
:10084000451F41934081451F41934081451F41937E
:100850004081451F41934081451F41934081451F81
:1008600041934081451F41934081451F4193408101
:10087000451F41934081451F41934081451F41934E
:100880004081451F41934081451F41934081451F51
:100890004193551FB0974081539F400D4193EC0108
:1008A00011240895A0EEB0E0E8E5F4E00C94C92826
:1008B0007C018B01CE018F539F4F0E944903BE01E3
:1008C0006F537F4FCE0101960E944903BE016F5FB7
:1008D0007F4FCE0181960E944903A801BE016F5D42
:1008E0007F4FCE018F579F4F0E943303AE014F536E
:1008F0005F4FBE016F577F4FCE018F559F4F0E94B4
:100900003303BE016F557F4FCE0181960E9449038C
:10091000AE014F575F4FBE016F5D7F4FCA010E940E
:100920003303BE016F577F4FCE0181960E9449036A
:10093000BE016F5D7F4FCE0101960E944903BE014B
:100940006F5F7F4FCE0181960E944903BE016F5DAC
:100950007F4FCE0101960E944903BE016F5F7F4F1A
:10096000CE0181960E944903AE014F575F4FBE01F1
:100970006F5D7F4FCA010E943303BE016F577F4FE7
:10098000CE0181960E944903BE016F5D7F4FCE016B
:1009900001960E94490314E0BE016F5F7F4FCE01B4
:1009A00081960E944903BE016F5D7F4FCE01019683
:1009B0000E944903115081F7AE014F575F4FBE01AE
:1009C0006F5F7F4FCE018F599F4F0E943303BE014F
:1009D0006F597F4FCE0181960E944903BE016F5D22
:1009E0007F4FCE0101960E94490319E0BE016F5F5F
:1009F0007F4FCE0181960E944903BE016F5D7F4FFC
:100A0000CE0101960E944903115081F7AE014F5962
:100A10005F4FBE016F5F7F4FCE0181960E9433030F
:100A2000BE016F5D7F4FCE0101960E944903BE015A
:100A30006F5F7F4FCE0181960E94490314E0BE0193
:100A40006F5D7F4FCE0101960E944903BE016F5F2B
:100A50007F4FCE0181960E944903115081F7AE016C
:100A60004F575F4FBE016F5D7F4FCE018F599F4F34
:100A70000E943303BE016F597F4FCE0181960E94C1
:100A80004903BE016F5D7F4FCE0101960E9449036D
:100A900018E1BE016F5F7F4FCE0181960E9449032E
:100AA000BE016F5D7F4FCE0101960E944903115038
:100AB00081F7AE014F595F4FBE016F5F7F4FCE018F
:100AC0008F5B9F4F0E943303BE016F5B7F4FCE0150
:100AD00001960E944903BE016F5F7F4FCE01819650
:100AE0000E94490311E3BE016F5D7F4FCE01019665
:100AF0000E944903BE016F5F7F4FCE0181960E9425
:100B00004903115081F7AE014F5B5F4FBE016F5D2E
:100B10007F4FCE0101960E943303BE016F5F7F4F6E
:100B2000CE0181960E944903BE016F5D7F4FCE01C9
:100B300001960E94490318E1BE016F5F7F4FCE010D
:100B400081960E944903BE016F5D7F4FCE010196E1
:100B50000E944903115081F7AE014F595F4FBE010A
:100B60006F5F7F4FCE0181960E943303BE016F5DA0
:100B70007F4FCE0101960E944903BE016F5F7F4FF8
:100B8000CE0181960E944903BE016F5D7F4FCE0169
:100B900001960E944903BE016F5F7F4FCE0181968F
:100BA0000E944903BE016F5D7F4FCE0101960E94F6
:100BB0004903AE014F555F4FBE016F5F7F4FC701C5
:100BC0000E943303C052DF4FE6E00C94E5288F9279
:100BD000FC01DB01882422E43BED5D91259F01921D
:100BE000612D359F600D752F711D8827881F5D91C0
:100BF000259F600D711D881D6193359F700D811DAE
:100C0000850F6627681D5D91259F700D811D681DEC
:100C10007193359F800D611D650F7727781D5D915C
:100C2000259F800D611D781D8193359F600D711D7D
:100C3000750F8827881D5D91259F600D711D881D8A
:100C40006193359F700D811D850F6627681D5D912D
:100C5000259F700D811D681D7193359F800D611D4D
:100C6000650F7727781D5D91259F800D611D781D8B
:100C70008193359F600D711D750F8827881D5D91CB
:100C8000259F600D711D881D6193359F700D811D1D
:100C9000850F6627681D5D91259F700D811D681D5C
:100CA0007193359F800D611D650F7727781D5D91CC
:100CB000259F800D611D781D8193359F600D711DED
:100CC000750F8827881D5D91259F600D711D881DFA
:100CD0006193359F700D811D850F6627681D5D919D
:100CE000259F700D811D681D7193359F800D611DBD
:100CF000650F7727781D5D91259F800D611D781DFB
:100D00008193359F600D711D750F8827881D5D913A
:100D1000259F600D711D881D6193359F700D811D8C
:100D2000850F6627681D5D91259F700D811D681DCB
:100D30007193359F800D611D650F7727781D5D913B
:100D4000259F800D611D781D8193359F600D711D5C
:100D5000750F8827881D5D91259F600D711D881D69
:100D60006193359F700D811D850F6627681D5D910C
:100D7000259F700D811D681D7193359F800D611D2C
:100D8000650F7727781D5D91259F800D611D781D6A
:100D90008193359F600D711D750F8827881D5D91AA
:100DA000259F600D711D881D6193359F700D811DFC
:100DB000850F6627681D5D91259F700D811D681D3B
:100DC0007193359F800D611D650F7727781D5D91AB
:100DD000259F800D611D781D8193359F600D711DCC
:100DE000750F8827881D5D91259F600D711D881DD9
:100DF0006193359F700D811D850F6627681D5D917C
:100E0000259F700D811D681D7193359F800D611D9B
:100E1000650F7727781D5D91259F800D611D781DD9
:100E20008193359F600D711D750F8827881D5D9119
:100E3000259F600D711D881D6193359F700D811D6B
:100E4000850F6627681D5D91259F700D811D681DAA
:100E50007193359F800D611D650F7727781D5D911A
:100E6000259F800D611D781D8193359F600D711D3B
:100E7000750F8827881D5D91259F600D711D881D48
:100E80006193359F700D811D850F6627681D5D91EB
:100E9000259F700D811D681D7193359F800D611D0B
:100EA000650F7727781D5D91259F800D611D781D49
:100EB0008193359F600D711D750F8827881D5D9189
:100EC000259F600D711D881D359F700D811D850F3B
:100ED000262F3FE7632361936627681D220F771F44
:100EE000881F661F23E1729F702D312D829F300D68
:100EF0008827811D629F800DB0972081270F219345
:100F00002081231F21932081281F21932081281DC8
:100F100021932081281D21932081281D2193208148
:100F2000281D21932081281D21932081281D219394
:100F30002081281D21932081281D21932081281D97
:100F400021932081281D21932081281D2193208118
:100F5000281D21932081281D21932081281D219364
:100F60002081281D21932081281D21932081281D67
:100F700021932081281D21932081281D21932081E8
:100F8000281D21932081281D21932081281D219334
:100F90002081281D21932081281D21932081281D37
:100FA00021932081281D21932081281D21932081B8
:100FB000281D21932081281D219311248F900895AD
:100FC000222736E2DB01FC01CE01EB015F965C914A
:100FD0005F97A0966F8D639F500D121E550F111CC9
:100FE0005695578F33E1319D36E25D917727500D4D
:100FF000711D6991639F500D711D51935D916991B0
:10100000639F570F7727711D500D721F51935D918C
:101010006991639F570F7727711D500D721F519370
:101020005D916991639F570F7727711D500D721F56
:1010300051935D916991639F570F7727711D500DF3
:10104000721F51935D916991639F570F7727711DAF
:10105000500D721F51935D916991639F570F7727D0
:10106000711D500D721F51935D916991639F570FD0
:101070007727711D500D721F51935D916991639F88
:10108000570F7727711D500D721F51935D91699114
:10109000639F570F7727711D500D721F51935D91FC
:1010A0006991639F570F7727711D500D721F5193E0
:1010B0005D916991639F570F7727711D500D721FC6
:1010C00051935D916991639F570F7727711D500D63
:1010D000721F51935D916991639F570F7727711D1F
:1010E000500D721F51935D916991639F570F772740
:1010F000711D500D721F51935D916991639F570F40
:101100007727711D500D721F51935D916991639FF7
:10111000570F7727711D500D721F51935D91699183
:10112000639F570F7727711D500D721F51935D916B
:101130006991639F570F7727711D500D721F51934F
:101140005D916991639F570F7727711D500D721F35
:1011500051935D916991639F570F7727711D500DD2
:10116000721F51935D916991639F570F7727711D8E
:10117000500D721F51935D916991639F570F7727AF
:10118000711D500D721F51935D916991639F570FAF
:101190007727711D500D721F51935D916991639F67
:1011A000570F7727711D500D721F51935D916991F3
:1011B000639F570F7727711D500D721F51935D91DB
:1011C0006991639F570F7727711D500D721F5193BF
:1011D0005D916991639F570F7727711D500D721FA5
:1011E00051935D916991639F570F7727711D500D42
:1011F000721F51935D916991639F570F7727711DFE
:10120000500D721F51935D916991639F570F77271E
:10121000711D500D721F51935081570F5083EC0177
:1012200011240895DB01FC01CE01EA0136E24D9163
:101230005991451B41934D915991450B41934D91C6
:101240005991450B41934D915991450B41934D91C6
:101250005991450B41934D915991450B41934D91B6
:101260005991450B41934D915991450B41934D91A6
:101270005991450B41934D915991450B41934D9196
:101280005991450B41934D915991450B41934D9186
:101290005991450B41934D915991450B41934D9176
:1012A0005991450B41934D915991450B41934D9166
:1012B0005991450B41934D915991450B41934D9156
:1012C0005991450B41934D915991450B41934D9146
:1012D0005991450B41934D915991450B41934D9136
:1012E0005991450B41934D915991450B41934D9126
:1012F0005991450B41934D915991450B41934D9116
:101300005991450B41934D915991450B41934D9105
:101310005991450B41934D915991450B41934D91F5
:101320005991450B41934D915991450B4193552747
:10133000551FB0974081539F4019419355274081D5
:10134000450B41934081450B41934081450B4193AF
:101350004081450B41934081450B41934081450BB2
:1013600041934081450B41934081450B419340811E
:10137000450B41934081450B41934081450B41937F
:101380004081450B41934081450B41934081450B82
:1013900041934081450B41934081450B41934081EE
:1013A000450B41934081450B41934081450B41934F
:1013B0004081450B41934081450B41934081450B52
:1013C00041934081450B41934081450B41934081BE
:1013D000450B41934081450B41934081450B41931F
:1013E0004081450B41934081450B41934081450B22
:1013F00041934081450B4193551FB0974081539FC6
:1014000040194193EC0111240895DB01FC015DEECC
:101410004D91451B41935FEF4D91450B41934D918C
:10142000450B41934D91450B41934D91450B419394
:101430004D91450B41934D91450B41934D91450B7A
:1014400041934D91450B41934D91450B41934D91E6
:10145000450B41934D91450B41934D91450B419364
:101460004D91450B41934D91450B41934D91450B4A
:1014700041934D91450B41934D91450B41934D91B6
:10148000450B41934D91450B41934D91450B419334
:101490004D91450B41934D91450B41934D91450B1A
:1014A00041934D91450B41934D91450B41934D9186
:1014B000450B41934D91450B41934D91450B419304
:1014C0004D91450B41934D91450B41935FE74D91F4
:1014D000450B41938827881F08952F923F924F9282
:1014E0005F926F927F928F929F92AF92BF92CF92B4
:1014F000DF92EF92FF920F931F93CF93DF93FC0144
:10150000EA01DB01442755278A012D903D904D903B
:101510005D90688079808A809B80289C6001269CF1
:101520005001279CB00CC11CD51E399C7001299C10
:101530009001369CB00CC11CD21E351F379CC00CCC
:10154000D11C351F499CE30EF01C011D489C9001E5
:10155000469CC00CD11CE21E351F389CD00CE11CEF
:10156000351F599CF30E001D111D579C9001479C7F
:10157000D00C211D351F569CD00C211D351F589CA9
:10158000E20E031E151EF00C011D151FA082B18274
:10159000C282D3825A012D913D914D916C817D8102
:1015A0008E819F81269FE00CF11C051FB51E279F91
:1015B000F00C011DB51E369FF00C011D1B1DA51E54
:1015C000289F000D111DA51E379F000D111DA51E82
:1015D000469F000D111DA51EBB24299F100DA11CA7
:1015E000B51E389F100DA11CB51E479F100DA11CE4
:1015F000B51E221A330A440A2D91520A0008661AAF
:10160000770A880A990A110820243024402450249B
:10161000612471248124912401941194200C351E9D
:10162000451E551E610C751E851E951E012400FA6F
:10163000269F100DA11CB51E399F3327A00CB11C8D
:10164000351F489FA00CB11C351F279FA00CB11C53
:10165000351F499F4427B00C311D451F289FB00CF2
:10166000311D451F299F300D411D882799272227AD
:10167000269CB001279C700D811D369C700D811D2C
:10168000951F289C800D911D251F379C800D911D55
:10169000251F469C800D911D251F299C2224900DFD
:1016A000211D251E389C900D211D251E479C900D47
:1016B000211D251E569C900D211D251E399C33246D
:1016C000200D211C351E489C200D211C351E579CC9
:1016D000200D211C351E499C4424200C311C451E24
:1016E000589C200C311C451E599C300C411C6080BC
:1016F00071806E0C7F1CC01ED11EEA1CFB1C031FD8
:10170000141F551F882480F88A94581D052E0594AF
:1017100068257825882598252825282438244824D4
:10172000880C661E771EC81ED91EE21EF21C031D01
:10173000141DA51EB01C301D401D64827582C6821A
:10174000D782B701C8012A2D5B2DCC24DD24760178
:1017500086012D903D904D905D90688479848A84B7
:101760009B84269C5001279CB00CC11C369CB00C5D
:10177000C11CD11E289CC00CD11CE11E379CC00C82
:10178000D11CE11E469CC00CD11CE11E299CD00C32
:10179000E11CF11E389CD00CE11CF11E479CD00CC2
:1017A000E11CF11E569CD00CE11CF11E6A0D608BF1
:1017B0007B1D718B8C1D828B9D1D938BA21EA48A19
:1017C000B51EB58AC31ED41E00080F9244275527A4
:1017D000399CE00CF11C051F489CE00CF11C051F16
:1017E000579CE00CF11C051F499CF00C011D151FB6
:1017F000589CF00C011D151F599C000D111D5A011C
:101800002D913D914D916C857D858E859F85269F7F
:10181000E00CF11C051FB51E279FF00C011DB51E25
:10182000369FF00C011D1B1DA51E289F000D111DCC
:10183000A51E379F000D111DA51E469F000D111DF1
:10184000A51EBB24299F100DA11CB51E389F100D8D
:10185000A11CB51E479F100DA11CB51E221A330AEC
:10186000440A2D91520A0008661A770A880A990AD2
:101870001108202430244024502461247124812420
:10188000912401941194200C351E451E551E610CA7
:10189000751E851E951E012400FA269F100DA11CA1
:1018A000B51E399F3327A00CB11C351F489FA00CD3
:1018B000B11C351F279FA00CB11C351F499F442721
:1018C000B00C311D451F289FB00C311D451F299FAD
:1018D000300D411D882799272227269CB001279C7F
:1018E000700D811D369C700D811D951F289C800DEB
:1018F000911D251F379C800D911D251F469C800D35
:10190000911D251F299C2224900D211D251E389CE8
:10191000900D211D251E479C900D211D251E569CB6
:10192000900D211D251E399C3324200D211C351EB0
:10193000489C200D211C351E579C200D211C351E56
:10194000499C4424200C311C451E589C200C311C01
:10195000451E599C300C411C648875886E0C7F1C98
:10196000C01ED11EEA1CFB1C031F141F551F0F9025
:101970000194E00C0024F01C001D101D882480F848
:101980008A94581D052E0594682578258825982564
:101990002825282438244824880C661E771EC81E53
:1019A000D91EE21EF21C031D141DA51EB01C301D05
:1019B000401D648A758AC68AD78AE08EF18E028FAE
:1019C000138FA48EB58E368F478F50972D903D90F4
:1019D0004D905D902D913D914D915D91AD90BD905B
:1019E000CD90DD90ED90FD900D911D91AF93BF9343
:1019F000CF93DF932A183B084C085D082E093F0956
:101A0000400B510B0008688079808A809B806C8134
:101A10007D818E819F81A884B984CA84DB84EC8413
:101A2000FD840E851F856A187B088C089D086E0949
:101A30007F09800B910B110820243024402450246E
:101A400020253025402550256124712481249124AE
:101A5000612571258125912501941194AA27BB2721
:101A6000200C3A1E4A1E5A1E2A1F3A1F4A1F5A1F8E
:101A7000610C7A1E8A1E9A1E6A1F7A1F8A1F9A1F7D
:101A800001240F928D01289C6001269C5001279C07
:101A9000B00CC11CDA1E399C7001299CE001369CF7
:101AA000B00CC11CDC1EDA1F379CC00CD11CDA1F25
:101AB000499CED0EF01C011D489CE001469CC00CA9
:101AC000D11CEC1EDA1F389CD00CE11CDA1F599C8B
:101AD000FD0E001D111D579CE001479CD00CC11D3F
:101AE000DA1F569CD00CC11DDA1F589CEC0E0D1E3F
:101AF0001A1EF00C011D1A1F221A330A440A550A35
:101B00000008661A770A880A990A110820243024E6
:101B1000402450246124712481249124019411943F
:101B2000200C3A1E4A1E5A1E610C7A1E8A1E9A1EEC
:101B3000012400FA289FE001269FE00CF11C0C1FF5
:101B4000DA1F279FF00C011DDA1F399F1D0FA01D02
:101B5000B11D299FE001369FF00C011D1C1F22279B
:101B6000D21F379F000D111DD21F499FAD0FB01D11
:101B70002227211D489FE001469F000D111DAC1F2B
:101B80000024D01D389F100DA11D3327D31F599F4E
:101B9000BD0F201D9927911D579FE001479F100DF4
:101BA000C11DD31F569F100DC11DD31F589FAC0FD1
:101BB0000D1E131EB00D211D931F289CB001269CE5
:101BC000A001279C500D611D731F399C802D022C94
:101BD000212C099CE001369C500D611D7C1FD31FF8
:101BE000379C600D711DD31F499C8D0F201C311D2A
:101BF000489CE001469C600D711D8C1F0024D01D87
:101C0000389C700D811D3324D31D599C2D0E301D21
:101C10009924911C579CE001479C700DC11DD31D58
:101C2000569C700DC11DD31D589C8C0F0D1E131C8E
:101C3000200C311D931C25013601AE0CBF1CC01EAB
:101C4000D11EEA1EFB1E021F191F002400F80A9471
:101C5000301C132C159440255025602570258025B7
:101C6000202430259024000CA41EB51EC61ED71EAD
:101C7000E81EF21C031F191DA31DB11D211D911D7E
:101C8000392F408151816281738184819581868061
:101C900097800F900A94102C1594402450246024AF
:101CA0007024A024B024C024D024E024F0240025F3
:101CB0001025A025B02520253025C02DCC0F441D92
:101CC000551D661D771D8A1D9B1D8C1C9D1CCC27D8
:101CD000CC1F20883188420D531D40875187A101B8
:101CE00022883388621D731D62877387B10124883F
:101CF0003588821D931D84879587C1012688378882
:101D0000821C931C8686978641012224221CC6953C
:101D10004E1D5F1D601F711F8A1F9B1F821E931E19
:101D20000C1E1C1E408C518C628C738CA48CB58C48
:101D3000C68CD78C2694441D551D661D771D8A1DA3
:101D40009B1D8C1C9D1C021C121C408B518B628B9A
:101D5000738B848B958B868A978A400C511C611CEF
:101D6000711CA11CB11CC11CD11C408E518E628EF5
:101D7000738EA48EB58EC68ED78EDF91CF91BF9114
:101D8000AF91442755278A012D903D904D905D904D
:101D9000688879888A889B88289C6001269C5001E5
:101DA000279CB00CC11CD51E399C7001299C900148
:101DB000369CB00CC11CD21E351F379CC00CD11CE8
:101DC000351F499CE30EF01C011D489C9001469C68
:101DD000C00CD11CE21E351F389CD00CE11C351FF5
:101DE000599CF30E001D111D579C9001479CD00C6F
:101DF000211D351F569CD00C211D351F589CE20E0D
:101E0000031E151EF00C011D151FA0A2B1A2C2A237
:101E1000D3A25A012D913D914D916C897D898E8976
:101E20009F89269FE00CF11C051FB51E279FF00C13
:101E3000011DB51E369FF00C011D1B1DA51E289F00
:101E4000000D111DA51E379F000D111DA51E469FDB
:101E5000000D111DA51EBB24299F100DA11CB51E30
:101E6000389F100DA11CB51E479F100DA11CB51E5B
:101E7000221A330A440A2D91520A0008661A770A78
:101E8000880A990A1108202430244024502461240F
:101E900071248124912401941194200C351E451E37
:101EA000551E610C751E851E951E012400FA269F85
:101EB000100DA11CB51E399F3327A00CB11C351F76
:101EC000489FA00CB11C351F279FA00CB11C351FCB
:101ED000499F4427B00C311D451F289FB00C311D70
:101EE000451F299F300D411D882799272227269CB1
:101EF000B001279C700D811D369C700D811D951FB2
:101F0000289C800D911D251F379C800D911D251F3C
:101F1000469C800D911D251F299C2224900D211D7A
:101F2000251E389C900D211D251E479C900D211DBE
:101F3000251E569C900D211D251E399C3324200DF5
:101F4000211C351E489C200D211C351E579C200D40
:101F5000211C351E499C4424200C311C451E589CD4
:101F6000200C311C451E599C300C411C60A071A0F6
:101F70006E0C7F1CC01ED11EEA1CFB1C031F141F0D
:101F8000882480F88A94581D052E059468257825A4
:101F9000882598252825282438244824880C661E5E
:101FA000771EC81ED91EE21EF21C031D141DA51E9D
:101FB000B01C301D401D64A275A2C6A2D7A2B701F5
:101FC000C8012A2D5B2DCC24DD24760186012D90BD
:101FD0003D904D905D90688C798C8A8C9B8C269C72
:101FE0005001279CB00CC11C369CB00CC11CD11EEA
:101FF000289CC00CD11CE11E379CC00CD11CE11EDA
:10200000469CC00CD11CE11E299CD00CE11CF11E89
:10201000389CD00CE11CF11E479CD00CE11CF11E39
:10202000569CD00CE11CF11E6A0D60AB7B1D71ABA0
:102030008C1D82AB9D1D93ABA21EA4AAB51EB5AA92
:10204000C31ED41E00080F9244275527399CE00C6C
:10205000F11C051F489CE00CF11C051F579CE00C6F
:10206000F11C051F499CF00C011D151F589CF00C1C
:10207000011D151F599C000D111D5A012D913D91F7
:102080004D916C8D7D8D8E8D9F8D269FE00CF11C6A
:10209000051FB51E279FF00C011DB51E369FF00CC5
:1020A000011D1B1DA51E289F000D111DA51E379F7C
:1020B000000D111DA51E469F000D111DA51EBB2460
:1020C000299F100DA11CB51E389F100DA11CB51E17
:1020D000479F100DA11CB51E221A330A440A2D91E8
:1020E000520A0008661A770A880A990A11082024F9
:1020F00030244024502461247124812491240194AB
:102100001194200C351E451E551E610C751E851E32
:10211000951E012400FA269F100DA11CB51E399FA3
:102120003327A00CB11C351F489FA00CB11C351FD4
:10213000279FA00CB11C351F499F4427B00C311DAF
:10214000451F289FB00C311D451F299F300D411D93
:10215000882799272227269CB001279C700D811D76
:10216000369C700D811D951F289C800D911D251F8B
:10217000379C800D911D251F469C800D911D251FAC
:10218000299C2224900D211D251E389C900D211D77
:10219000251E479C900D211D251E569C900D211D2E
:1021A000251E399C3324200D211C351E489C200DF2
:1021B000211C351E579C200D211C351E499C442492
:1021C000200C311C451E589C200C311C451E599C6E
:1021D000300C411C64A875A86E0C7F1CC01ED11E5B
:1021E000EA1CFB1C031F141F551F0F900194E00CE9
:1021F0000024F01C001D101D882480F88A94581DAE
:10220000052E0594682578258825982528252824D5
:1022100038244824880C661E771EC81ED91EE21E6C
:10222000F21C031D141DA51EB01C301D401D64AA08
:1022300075AAC6AAD7AAE0AEF1AE02AF13AFA4AE9C
:10224000B5AE36AF47AF50972D903D904D905D9015
:102250002D913D914D915D91AD90BD90CD90DD90D2
:10226000ED90FD900D911D91AF93BF93CF93DF93B0
:102270002A183B084C085D082E093F09400B510BFA
:102280000008688879888A889B886C897D898E890E
:102290009F89A88CB98CCA8CDB8CEC8CFD8C0E8D44
:1022A0001F8D6A187B088C089D086E097F09800BBA
:1022B000910B11082024302440245024202530255F
:1022C00040255025612471248124912461257125A4
:1022D0008125912501941194AA27BB27200C3A1E31
:1022E0004A1E5A1E2A1F3A1F4A1F5A1F610C7A1E85
:1022F0008A1E9A1E6A1F7A1F8A1F9A1F01240F9234
:102300008D01289C6001269C5001279CB00CC11CAB
:10231000DA1E399C7001299CE001369CB00CC11C6E
:10232000DC1EDA1F379CC00CD11CDA1F499CED0E55
:10233000F01C011D489CE001469CC00CD11CEC1E09
:10234000DA1F389CD00CE11CDA1F599CFD0E001DD1
:10235000111D579CE001479CD00CC11DDA1F569CF3
:10236000D00CC11DDA1F589CEC0E0D1E1A1EF00C6D
:10237000011D1A1F221A330A440A550A0008661A58
:10238000770A880A990A110820243024402450240E
:10239000612471248124912401941194200C3A1E0B
:1023A0004A1E5A1E610C7A1E8A1E9A1E012400FAC9
:1023B000289FE001269FE00CF11C0C1FDA1F279FCD
:1023C000F00C011DDA1F399F1D0FA01DB11D299FA3
:1023D000E001369FF00C011D1C1F2227D21F379FE2
:1023E000000D111DD21F499FAD0FB01D2227211DC9
:1023F000489FE001469F000D111DAC1F0024D01D19
:10240000389F100DA11D3327D31F599FBD0F201DCD
:102410009927911D579FE001479F100DC11DD31FA4
:10242000569F100DC11DD31F589FAC0F0D1E131EBC
:10243000B00D211D931F289CB001269CA001279C54
:10244000500D611D731F399C802D022C212C099C7D
:10245000E001369C500D611D7C1FD31F379C600D21
:10246000711DD31F499C8D0F201C311D489CE0011C
:10247000469C600D711D8C1F0024D01D389C700D72
:10248000811D3324D31D599C2D0E301D9924911C80
:10249000579CE001479C700DC11DD31D569C700DCB
:1024A000C11DD31D589C8C0F0D1E131C200C311DFB
:1024B000931C25013601AE0CBF1CC01ED11EEA1EA6
:1024C000FB1E021F191F002400F80A94301C132C55
:1024D0001594402550256025702580252024302521
:1024E0009024000CA41EB51EC61ED71EE81EF21CAA
:1024F000031F191DA31DB11D211D911D392F40A1C1
:1025000051A162A173A184A195A186A097A0108872
:10251000140E10A21188151E11A21288161E12A2E6
:102520001388171E13A21488181E14A21588191ECA
:1025300015A21688181C16A21788191C17A2CC27DA
:10254000CC1F0F900A94102C159440245024602422
:102550007024A024B024C024D024E024F02400253A
:102560001025A025B02520253025202C220C441D27
:10257000551D661D771D8A1D9B1D8C1C9D1C40AC26
:1025800051AC62AC73ACA4ACB5ACC6ACD7AC4E1C11
:102590005F1C601E711EAA1EBB1EC21ED31EBB275F
:1025A0000B1E1B1EE0A8F1A802A913A9A4A9B5A996
:1025B00026A937A94E0D5F1D601F711F8A1F9B1F23
:1025C000821E931E4E1C5F1C601E711EAA1EBB1E27
:1025D000C21ED31EEE240E1C1E1CC695C08D4C1FA1
:1025E000C18D5C1FC28D6C1FC38D7C1FC48D8C1F61
:1025F000C58D9C1FC68D8C1EC78D9C1E4E1C5E1CDF
:102600006E1C7E1CAE1CBE1CCE1CDE1C0E1C1E1CBA
:1026100040A751A762A773A784A795A786A697A6E8
:1026200040AA51AA62AA73AAA4AAB5AAC6AAD7AAFE
:1026300040AC51AC62AC73ACA4ACB5ACC6ACD7ACDE
:10264000400C511C611C711CA11CB11CC11CD11C73
:1026500040AE51AE62AE73AEA4AEB5AEC6AED7AEAE
:10266000DF91CF91BF91AF9190972D903D904D907C
:102670005D902D913D914D915D91AD90BD90CD902E
:10268000DD90ED90FD900D911D910D9020180D9015
:1026900030080D9040080D9050080D9020090D90C5
:1026A00030090D9040090D9050090D90A0080D9033
:1026B000B0080D90C0080D90D0080D90E0080D9066
:1026C000F0080D9000090C90100900082024302417
:1026D000402450242025302540255025A024B02416
:1026E000C024D024E024F024002510250194AA273A
:1026F000BB27200C3A1E4A1E5A1E2A1F3A1F4A1F89
:102700005A1FAA1EBA1ECA1EDA1EEA1EFA1E0A1F87
:102710001A1F1F930F93FF92EF92DF92CF92BF92F7
:10272000AF925F934F933F932F935F924F923F925D
:102730002F92688079808A809B806C817D818E81D8
:102740009F81A884B984CA84DB84EC84FD840E85CF
:102750001F8518886118198871081A8881081B88D4
:1027600091081C8861091D8871091E8881091F88CC
:102770009109188CA108198CB1081A8CC1081B8CFE
:10278000D1081C8CE1081D8CF1081E8C01091F8CDE
:102790001109110861247124812491246125712576
:1027A00081259125A124B124C124D124E124F1243F
:1027B000012511251194610C7A1E8A1E9A1E6A1F2A
:1027C0007A1F8A1F9A1FAA1EBA1ECA1EDA1EEA1E86
:1027D000FA1E0A1F1A1F1F930F93FF92EF92DF92A8
:1027E000CF92BF92AF929F938F937F936F939F925D
:1027F0008F927F926F9201240F926D017D018D0166
:10280000269C5001279CB00CC11C369CB00CC11CEE
:10281000DA1E289CC00CD11CEA1E379CC00CD11CAF
:10282000EA1E469CC00CD11CEA1E299CD00CE11C5F
:10283000FA1E389CD00CE11CFA1E479CD00CE11CFF
:10284000FA1E569CD00CE11CFA1E399CE00CF11CBF
:102850000A1F489CE00CF11C0A1F579CE00CF11C5D
:102860000A1F499CF00C011D1A1F589CF00C011DF9
:102870001A1F599C000D111DBF92AF925D01269F3A
:10288000E00CF11C0A1FBA1E279FF00C011DBA1E96
:10289000369FF00C011D1B1DAA1E289F000D111D47
:1028A000AA1E379F000D111DAA1E469F000D111D67
:1028B000AA1EBB24299F100DA11CBA1E389F100D03
:1028C000A11CBA1E479F100DA11CBA1E221A330A62
:1028D000440A550A0008661A770A880A990A1108F4
:1028E0002024302440245024612471248124912404
:1028F00001941194200C3A1E4A1E5A1E610C7A1E35
:102900008A1E9A1E012400FA569F100DA11CBA1EA1
:10291000399F3327A00CB11C3A1F489FA00CB11C53
:102920003A1F579FA00CB11C3A1F499F4427B00C77
:10293000311D4A1F589FB00C311D4A1F599F300D41
:10294000411DCD012227269CB001279C700D811DC1
:10295000369C700D811D9A1F289C800D911D2A1F89
:10296000379C800D911D2A1F469C800D911D2A1FAA
:10297000299C2224900D211D2A1E389C900D211D7A
:102980002A1E479C900D211D2A1E569C900D211D2C
:102990002A1E399C3324200D211C3A1E489C200DF0
:1029A000211C3A1E579C200D211C3A1E499C442490
:1029B000200C311C4A1E589C200C311C4A1E599C6C
:1029C000300C411C6F907F904301E6016E0C7F1C20
:1029D000C01ED11EEA1CFB1C031F141F112410F87B
:1029E0001A94A11D0A2E0594612571258125912532
:1029F0002125212431244124110C661E771EC81E76
:102A0000D91EE21EF21C031D141DAA1EB01C301D8F
:102A1000401DB701C8012A2D5B2D8F929F92CF9345
:102A2000DF936F927F92CF92DF92CDB7DEB7A19600
:102A3000CDBFDEBF2F903F904F905F906097CDBF8E
:102A4000DEBF6F907F908F909F906197CDBFDEBF6C
:102A5000AA276D017D018D01269C5001279CB00C99
:102A6000C11C369CB00CC11CDA1E289CC00CD11CA9
:102A7000EA1E379CC00CD11CEA1E469CC00CD11C1F
:102A8000EA1E299CD00CE11CFA1E389CD00CE11CDB
:102A9000FA1E479CD00CE11CFA1E569CD00CE11C7F
:102AA000FA1E399CE00CF11C0A1F489CE00CF11C3A
:102AB0000A1F579CE00CF11C0A1F499CF00C011DD9
:102AC0001A1F589CF00C011D1A1F599C000D111D56
:102AD0006A0D6F937B1D7F938C1D8F939D1D9F931C
:102AE000A21EAF92B51EBF92C31ED41EBA1FA596DA
:102AF000CDBFDEBF2F913F914F915F916097CDBFCA
:102B0000DEBF6F917F918F919F916B97CDBFDEBF9D
:102B1000AA24BB24269FE00CF11C0A1FBA1E279F83
:102B2000F00C011DBA1E369FF00C011D1B1DAA1EC4
:102B3000289F000D111DAA1E379F000D111DAA1EF2
:102B4000469F000D111DAA1EBB24299F100DA11C1C
:102B5000BA1E389F100DA11CBA1E479F100DA11C54
:102B6000BA1E221A330A440A550A0008661A770A5E
:102B7000880A990A11082024302440245024612412
:102B800071248124912401941194200C3A1E4A1E30
:102B90005A1E610C7A1E8A1E9A1E012400FA569F44
:102BA000100DA11CBA1E399F3327A00CB11C3A1F6F
:102BB000489FA00CB11C3A1F579FA00CB11C3A1F94
:102BC000499F4427B00C311D4A1F589FB00C311D3E
:102BD0004A1F599F300D411D882799272227269C7F
:102BE000B001279C700D811D369C700D811D9A1FB0
:102BF000289C800D911D2A1F379C800D911D2A1F36
:102C0000469C800D911D2A1F299C2224900D211D78
:102C10002A1E389C900D211D2A1E479C900D211DB7
:102C20002A1E569C900D211D2A1E399C3324200DEE
:102C3000211C3A1E489C200D211C3A1E579C200D39
:102C4000211C3A1E499C4424200C311C4A1E589CCD
:102C5000200C311C4A1E599C300C411C7F906F90F7
:102C60006E0C7F1CC01ED11EEA1CFB1C031F141F10
:102C7000AA1FEB0EBB27FB1E0B1F1B1F112410F8F6
:102C80001A94A11D0A2E059461257125812591258F
:102C90002125212431244124110C661E771EC81ED3
:102CA000D91EE21EF21C031D141DAA1EB01C301DED
:102CB000401D6F927F92CF92DF92EF92FF920F931F
:102CC0001F93AF92BF923F934F936F96CDBFDEBFDE
:102CD0002F903F904F905F902F913F914F915F9138
:102CE000AF90BF90CF90DF90EF90FF900F911F912A
:102CF0002A183B084C085D082E093F09400B510B70
:102D000000086097CDBFDEBF6F907F908F909F903F
:102D10006F917F918F919F91AF90BF90CF90DF90F7
:102D2000EF90FF900F911F916997CDBFDEBF6A189A
:102D30007B088C089D086E097F09800B910B110898
:102D4000202430244024502420253025402550259F
:102D50006124712481249124612571258125912587
:102D600001941194AA27200C3A1E4A1E5A1E2A1FAB
:102D70003A1F4A1F5A1F610C7A1E8A1E9A1E6A1F2A
:102D80007A1F8A1F9A1F01240F926D017601860116
:102D9000E601269C5001279CB00CC11C369CB00C4F
:102DA000C11CDA1E289CC00CD11CEA1E379CC00C2A
:102DB000D11CEA1E469CC00CD11CEA1E299CD00CDA
:102DC000E11CFA1E389CD00CE11CFA1E479CD00C6A
:102DD000E11CFA1E569CD00CE11CFA1E399CE00C3A
:102DE000F11C0A1F489CE00CF11C0A1F579CE00CC8
:102DF000F11C0A1F499CF00C011D1A1F589CF00C75
:102E0000011D1A1F599C000D111D269FE00CF11C7D
:102E10000A1FDA1F279FF00C011DDA1F369FF00CE6
:102E2000011D1D1FCA1F289F000D111DCA1F379F9E
:102E3000000D111DCA1F469F000D111DCA1FDD2761
:102E4000299F100DC11DDA1F389F100DC11DDA1FFB
:102E5000479F100DC11DDA1F221A330A440A550A72
:102E60000008661A770A880A990A11082024302473
:102E700040245024612471248124912401941194CC
:102E8000200C3A1E4A1E5A1E610C7A1E8A1E9A1E79
:102E9000012400FA569F100DC11DDA1F399F3327F8
:102EA000C00DD11D3A1F489FC00DD11D3A1F579F1D
:102EB000C00DD11D3A1F499F4427D00D311D4A1F17
:102EC000589FD00D311D4A1F599F300D411D882735
:102ED00099272227269CB001279C700D811D369CC6
:102EE000700D811D9A1F289C800D911D2A1F379CF3
:102EF000800D911D2A1F469C800D911D2A1F299C23
:102F00002224900D211D2A1E389C900D211D2A1E61
:102F1000479C900D211D2A1E569C900D211D2A1E96
:102F2000399C3324200D211C3A1E489C200D211C65
:102F30003A1E579C200D211C3A1E499C4424200C0B
:102F4000311C4A1E589C200C311C4A1E599C300CC6
:102F5000411C35014601AE0CBF1CC01ED11EEC1E2B
:102F6000FD1E031F141FB0F9BA95AB1F0A2E05945E
:102F70006B277B278B279B272B272B263B264B2634
:102F8000BB0FA61EB71EC81ED91EE21EF21C031DD3
:102F9000141DCA1FD01D301D401D0F900A94ADB7DF
:102FA000BEB75096ADBFBEBF8F917F916F915F91BD
:102FB0005F904F903F902F905097ADBFBEBF102CA9
:102FC00015946024702480249024A024B024C0246C
:102FD000D024E024F02400251025C025D02530255C
:102FE0004025B02DBB0F261C371C481C591C5A1DF0
:102FF0006B1D7C1D8D1DDF90CF90BF90AF909F907B
:103000008F907F906F906E1C7F1C801E911EAC1E57
:10301000BD1EC31ED41EBB270B1E1B1E4F913F910E
:10302000DF91CF911F910F91FF90EF902E0C3F1CDD
:10303000401E511E5C1F6D1F731F841F6E1C7F1C62
:10304000801E911EAC1EBD1EC31ED41E0B1E1B1E59
:10305000CDB7DEB76097CDBFDEBF9F914F913F9157
:103060002F911F910F91FF90EF90E00CF11C011D2B
:10307000111D211D311D411D911D6096CDBFDEBF6B
:10308000EF92FF920F931F932F933F934F939F9332
:10309000CDBFDEBF9F914F913F912F911F910F9117
:1030A000FF90EF900F900A942897CDBFDEBF102CB1
:1030B0001594E024F02400251025202530254025F6
:1030C000902520243024402450245025602570254C
:1030D0008025B02DBB0FC081CE1DD181DF1DE280C8
:1030E000E01EF380F11E0481021F1581131F26814B
:1030F000241F3781391F4085421D9185931D2284ED
:10310000241C3384351C4484451E5584561E568524
:10311000571F6785681FBB27BB1F80A1C80FC08BC7
:1031200081A1D81FD18B82A1E81EE28A83A1F81E5B
:10313000F38A84A1081F048B85A1181F158B86A113
:10314000281F268B87A1381F378B80A5481F408FEB
:1031500081A5981F918F82A5281E228E83A5381ED7
:10316000338E84A5481E448E85A5581E558E86A58F
:10317000581F568F87A5681F678FAA27AA1F8F9190
:103180007F916F915F915F904F903F902F9060245F
:10319000702480249024A024B024C024D02420248F
:1031A0003024402450245025602570258025B69574
:1031B000C0A9C61DD1A9D71DE2A8E81CF3A8F91C17
:1031C00004A90A1D15A91B1D26A92C1D37A93D1DE3
:1031D00040AD421D91AD931D22AC241C33AC351C77
:1031E00044AC451E55AC561E56AD571F67AD681F03
:1031F0000B1E1B1EA69580A1C81FC0A381A1D81FAE
:10320000D1A382A1E81EE2A283A1F81EF3A284A1A9
:10321000081F04A385A1181F15A386A1281F26A394
:1032200087A1381F37A380A5481F40A781A5981FF5
:1032300091A782A5281E22A683A5381E33A684A5A1
:10324000481E44A685A5581E55A686A5581F56A7F4
:1032500087A5681F67A70A1E1A1EC0A9D1A9E2A8E0
:10326000F3A804A915A926A937A940AD91AD22ACB0
:1032700033AC44AC55AC56AD67ADC00DD11DE11CAF
:10328000F11C011D111D211D311D411D911D211C10
:10329000311C411C511C511D611DC0ABD1ABE2AAB8
:1032A000F3AA04AB15AB26AB37AB40AF91AF22AE60
:1032B00033AE44AE55AE56AF67AFCDB7DEB7A996C5
:1032C000CDBFDEBF1124DF91CF911F910F91FF90F1
:1032D000EF90DF90CF90BF90AF909F908F907F90B6
:1032E0006F905F904F903F902F9008952F923F9254
:1032F0004F925F926F927F928F929F92AF92BF9206
:10330000CF92DF92EF92FF920F931F93CF93DF93B1
:10331000FC01EB01288039804A805B806C807D80D5
:103320008E809F80AA27BB27CF93DF93239C5001D9
:103330006D01249CB00CC11C7D01259CC00CD11CCE
:10334000349CC00CD11CEA1E269CD00CE11C359C80
:10335000D00CE11CFA1E8D01279CE00CF11C0A1F09
:10336000369CE00CF11C0A1F459CE00CF11C0A1F66
:10337000289CF00C011D1A1F379CF00C011D1A1F10
:10338000469CF00C011D1A1F9D01299C000D111D6A
:103390002A1F389C000D111D2A1F479C000D111D6E
:1033A0002A1F569C000D111D2A1FAA1CBB1CCC1CD9
:1033B000DD1CEE1CFF1C001F990B229C0082212C9F
:1033C000339CA001449CB001559CA20CA182B41E68
:1033D000B282C51EC382D61ED482E71EE582F01CCF
:1033E000F682011D07839A0B399C100D211D3A1F8F
:1033F000489C100D211D3A1F579C100D211D3A1F8E
:10340000AD01499C200D311D4A1F589C200D311DD6
:103410004A1F679C200D311D4A1F599C300D411DCC
:103420005A1F689C300D411D5A1FBD01699C400DFB
:10343000511D6A1F789C400D511D6A1F799C500DCB
:10344000611D7A1F8827899C600D711D8A1F111FBD
:10345000221F331F441F551F661F771F881F669C3E
:103460009195090E1A1E5001779C6001889C70018D
:10347000999C10011A0D2B1D3C1D4D1D5E1D6F1DCD
:10348000721D831D288439844A845B846C847D8406
:103490008E849F84239C50016D01249CB00CC11C20
:1034A0007D01259CC00CD11C349CC00CD11CEA1E93
:1034B000269CD00CE11C359CD00CE11CFA1E0A2F76
:1034C000279CE00CF11C0A1F369CE00CF11C0A1F23
:1034D000459CE00CF11C0A1F289CF00C011DAB1F41
:1034E000379CF00C011DAB1F469CF00C011DAB1F5F
:1034F000299C000DA11DBB0B389C000DA11DB040E7
:10350000479C000DA11DB040569C000DA11DB04070
:10351000B195AA0CBB1CCC1CDD1CEE1CFF1C001FB3
:10352000990BA20EB31EC41ED51EE61EF71E081F61
:103530009040229C9001339CA001449CB001559C7A
:10354000210F208BA31EA18AB41EB28AC51EC38A76
:10355000D61ED48AE71EE58AF01CF68A011D078B69
:10356000904011273327399CA00DB11D311F489C75
:10357000A00DB11D311F579CA00DB11D311F412F52
:10358000499CB00D311D411F589CB00D311D411F8C
:10359000679CB00D311D411F512F599C300D411DAD
:1035A000511F689C300D411D511F612F699C400DBA
:1035B000511D611F789C400D511D611F712F799C19
:1035C000500D611D711F8827899C600D711D811F21
:1035D000AA1FBB1F331F441F551F661F771F881F5D
:1035E000669C9195090E111E5001779C6001889C84
:1035F0007001999CAA0DA08FBB1DB18F3C1D328F0D
:103600004D1D438F5E1D548F6F1D658F701D768F0E
:10361000811D878FA880B980CA80DB80EC80FD8007
:103620000E811F812A183B084C085D086E087F0830
:10363000800A910ABB27AA0B2A263A264A265A262E
:103640006A267A268A269A26A1952A0E3B1E4B1EAA
:103650005B1E6B1E7B1E8B1E9B1EAA27239C50018C
:103660006D01249CB00CC11C7D01259CC00CD11C9B
:10367000349CC00CD11CEA1E269CD00CE11C359C4D
:10368000D00CE11CFA1E8D01279CE00CF11C0A1FD6
:10369000369CE00CF11C0A1F459CE00CF11C0A1F33
:1036A000289CF00C011D1A1F379CF00C011D1A1FDD
:1036B000469CF00C011D1A1F9D01299C000D111D37
:1036C0002A1F389C000D111D2A1F479C000D111D3B
:1036D0002A1F569C000D111D2A1FAA1CBB1CCC1CA6
:1036E000DD1CEE1CFF1C001F990B229CE001339C8B
:1036F000A001449CB001559CAD0EB41EC51ED61E43
:10370000E71EF01C011D9A0B399C100D211D3A1F5C
:10371000489C100D211D3A1F579C100D211D3A1F6A
:10372000AD01499C200D311D4A1F589C200D311DB3
:103730004A1F679C200D311D4A1F599C300D411DA9
:103740005A1F689C300D411D5A1FBD01699C400DD8
:10375000511D6A1F789C400D511D6A1F799C500DA8
:10376000611D7A1F8827899C600D711D8A1F111F9A
:10377000221F331F441F551F661F771F881F669C1B
:103780009195090E1A1E1001779C2001889C30012A
:10379000999C120D231D341D451D561D671D701D5E
:1037A000811D20883188428853886488758886887E
:1037B0009788C219A308B408C508D608E708F8080E
:1037C00009090008D081DC1BD087D181DA09D187B3
:1037D000D281DB09D287D381DC09D387D481DD098B
:1037E000D487D581DE09D587D681DF09D687D781F1
:1037F000D00BD787210A320A430A540A650A760A8F
:10380000870A980AAA0BA08CB18CC28CD38CE48C4A
:10381000F58C068D178D000C2A1C3B1C4C1C5D1C66
:103820006E1C7F1C801E911E208A318A428A538A18
:10383000648A758A868A978A2227A21FBA2FB5952D
:10384000AA0EBB1ECB1EDB1EEB1EFB1E0B1F1B1F7F
:10385000A08EB18EC28ED38EE48EF58E068F178F1A
:10386000DF91CF916096B096288039804A805B8046
:103870006C807D808E809F80AA27BB27CF93DF93AB
:10388000239C50016D01249CB00CC11C7D01259C22
:10389000C00CD11C349CC00CD11CEA1E269CD00C40
:1038A000E11C359CD00CE11CFA1E8D01279CE00C1C
:1038B000F11C0A1F369CE00CF11C0A1F459CE00C11
:1038C000F11C0A1F289CF00C011D1A1F379CF00CDC
:1038D000011D1A1F469CF00C011D1A1F9D01299CF9
:1038E000000D111D2A1F389C000D111D2A1F479C19
:1038F000000D111D2A1F569C000D111D2A1FAA1C08
:10390000BB1CCC1CDD1CEE1CFF1C001F990B229C59
:103910000082212C339CA001449CB001559CA20C38
:10392000A182B41EB282C51EC382D61ED482E71EF7
:10393000E582F01CF682011D07839A0B399C100D5D
:10394000211D3A1F489C100D211D3A1F579C100D38
:10395000211D3A1FAD01499C200D311D4A1F589C65
:10396000200D311D4A1F679C200D311D4A1F599C97
:10397000300D411D5A1F689C300D411D5A1FBD015D
:10398000699C400D511D6A1F789C400D511D6A1F96
:10399000799C500D611D7A1F8827899C600D711DCF
:1039A0008A1F111F221F331F441F551F661F771FB9
:1039B000881F669C9195090E1A1E5001779C600124
:1039C000889C7001999C10011A0D2B1D3C1D4D1DEA
:1039D0005E1D6F1D721D831D288439844A845B849B
:1039E0006C847D848E849F84239C50016D01249C73
:1039F000B00CC11C7D01259CC00CD11C349CC00C9A
:103A0000D11CEA1E269CD00CE11C359CD00CE11C7C
:103A1000FA1E0A2F279CE00CF11C0A1F369CE00CB2
:103A2000F11C0A1F459CE00CF11C0A1F289CF00C9D
:103A3000011DAB1F379CF00C011DAB1F469CF00C09
:103A4000011DAB1F299C000DA11DBB0B389C000D57
:103A5000A11DB040479C000DA11DB040569C000D1B
:103A6000A11DB040B195AA0CBB1CCC1CDD1CEE1CEA
:103A7000FF1C001F990BA20EB31EC41ED51EE61E0E
:103A8000F71E081F9040229C9001339CA001449C8B
:103A9000B001559C210F208BA31EA18AB41EB28AAF
:103AA000C51EC38AD61ED48AE71EE58AF01CF68A94
:103AB000011D078B904011273327399CA00DB11DA4
:103AC000311F489CA00DB11D311F579CA00DB11D89
:103AD000311F412F499CB00D311D411F589CB00D25
:103AE000311D411F679CB00D311D411F512F599C45
:103AF000300D411D511F689C300D411D511F612F1C
:103B0000699C400D511D611F789C400D511D611F26
:103B1000712F799C500D611D711F8827899C600D44
:103B2000711D811FAA1FBB1F331F441F551F661F16
:103B3000771F881F669C9195090E111E5001779C76
:103B40006001889C7001999CAA0DA08FBB1DB18F4C
:103B50003C1D328F4D1D438F5E1D548F6F1D658F31
:103B6000701D768F811D878FA880B980CA80DB8009
:103B7000EC80FD800E811F812A183B084C085D08EF
:103B80006E087F08800A910ABB27AA0B2A263A26CC
:103B90004A265A266A267A268A269A26A1952A0E27
:103BA0003B1E4B1E5B1E6B1E7B1E8B1E9B1EAA2785
:103BB000239C50016D01249CB00CC11C7D01259CEF
:103BC000C00CD11C349CC00CD11CEA1E269CD00C0D
:103BD000E11C359CD00CE11CFA1E8D01279CE00CE9
:103BE000F11C0A1F369CE00CF11C0A1F459CE00CDE
:103BF000F11C0A1F289CF00C011D1A1F379CF00CA9
:103C0000011D1A1F469CF00C011D1A1F9D01299CC5
:103C1000000D111D2A1F389C000D111D2A1F479CE5
:103C2000000D111D2A1F569C000D111D2A1FAA1CD4
:103C3000BB1CCC1CDD1CEE1CFF1C001F990B229C26
:103C4000E001339CA001449CB001559CAD0EB41E14
:103C5000C51ED61EE71EF01C011D9A0B399C100DC7
:103C6000211D3A1F489C100D211D3A1F579C100D15
:103C7000211D3A1FAD01499C200D311D4A1F589C42
:103C8000200D311D4A1F679C200D311D4A1F599C74
:103C9000300D411D5A1F689C300D411D5A1FBD013A
:103CA000699C400D511D6A1F789C400D511D6A1F73
:103CB000799C500D611D7A1F8827899C600D711DAC
:103CC0008A1F111F221F331F441F551F661F771F96
:103CD000881F669C9195090E1A1E1001779C200181
:103CE000889C3001999C120D231D341D451D561DC5
:103CF000671D701D811D2088318842885388648823
:103D0000758886889788C219A308B408C508D6089C
:103D1000E708F80809090008D081DC1BD087D181A9
:103D2000DA09D187D281DB09D287D381DC09D38735
:103D3000D481DD09D487D581DE09D587D681DF0915
:103D4000D687D781D00BD787210A320A430A540A73
:103D5000650A760A870A980AAA0BA08CB18CC28CD5
:103D6000D38CE48CF58C068D178D000C2A1C3B1C23
:103D70004C1C5D1C6E1C7F1C801E911E208A318A8B
:103D8000428A538A648A758A868A978A2227A21F62
:103D9000BA2FB595AA0EBB1ECB1EDB1EEB1EFB1E5B
:103DA0000B1F1B1FA08EB18EC28ED38EE48EF58E9C
:103DB000068F178FDF91CF916097B097008810A082
:103DC000010C00A2018811A0011C01A2028812A00E
:103DD000011C02A2038813A0011C03A2048814A0E2
:103DE000011C04A2058815A0011C05A2068816A0C6
:103DF000011C06A2078817A0011C07A2008C10A4B2
:103E0000011C00A6018C11A4011C01A6028C12A4A5
:103E1000011C02A6038C13A4011C03A6048C14A489
:103E2000011C04A6058C15A4011C05A6068C16A46D
:103E3000011C06A6078C17A4011C07A60024201C41
:103E400020AA301C31AA401C42AA501C53AA601C54
:103E500064AA701C75AA801C86AA901C97AAA01C34
:103E6000A0AEB01CB1AEC01CC2AED01CD3AEE01C24
:103E7000E4AEF01CF5AE001D06AF101D17AF288094
:103E800039804A805B806C807D808E809F80A88492
:103E9000B984CA84DB84EC84FD840E851F85088880
:103EA0002018098830080A8840080B8850080C88B8
:103EB00060080D8870080E8880080F889008088CAC
:103EC000A008098CB0080A8CC0080B8CD0080C8C98
:103ED000E0080D8CF0080E8C00090F8C100900080A
:103EE00020243024402450246024702480249024F2
:103EF000A024B024C024D024E024F02400251025E0
:103F000001946627200C361E461E561E661E761E1F
:103F1000861E961EA61EB61EC61ED61EE61EF61EC1
:103F2000061F161FCDB7DEB727971A930A93FA928A
:103F3000EA92DA92CA92BA92AA929A928A927A9261
:103F40006A925A924A923A922A92EF93FF93FE0112
:103F5000B097AA27BB27CF93DF93239C50016D0115
:103F6000249CB00CC11C7D01259CC00CD11C349C30
:103F7000C00CD11CEA1E269CD00CE11C359CD00C38
:103F8000E11CFA1E8D01279CE00CF11C0A1F369CD7
:103F9000E00CF11C0A1F459CE00CF11C0A1F289C38
:103FA000F00C011D1A1F379CF00C011D1A1F469CB6
:103FB000F00C011D1A1F9D01299C000D111D2A1FC7
:103FC000389C000D111D2A1F479C000D111D2A1F32
:103FD000569C000D111D2A1FAA1CBB1CCC1CDD1CED
:103FE000EE1CFF1C001F990B229C0082212C339C8D
:103FF000A001449CB001559CA20CA182B41EB282C7
:10400000C51EC382D61ED482E71EE582F01CF6824E
:10401000011D07839A0B399C100D211D3A1F489CE6
:10402000100D211D3A1F579C100D211D3A1FAD0187
:10403000499C200D311D4A1F589C200D311D4A1FDF
:10404000679C200D311D4A1F599C300D411D5A1F80
:10405000689C300D411D5A1FBD01699C400D511DCA
:104060006A1F789C400D511D6A1F799C500D611D7F
:104070007A1F8827899C600D711D8A1F111F221FBE
:10408000331F441F551F661F771F881F669C91951D
:10409000090E1A1E5001779C6001889C7001999C42
:1040A00010011A0D2B1D3C1D4D1D5E1D6F1D721D37
:1040B000831D288439844A845B846C847D848E8447
:1040C0009F84239C50016D01249CB00CC11C7D0178
:1040D000259CC00CD11C349CC00CD11CEA1E269C13
:1040E000D00CE11C359CD00CE11CFA1E0A2F279C39
:1040F000E00CF11C0A1F369CE00CF11C0A1F459CC9
:10410000E00CF11C0A1F289CF00C011DAB1F379C12
:10411000F00C011DAB1F469CF00C011DAB1F299C30
:10412000000DA11DBB0B389C000DA11DB040479C8C
:10413000000DA11DB040569C000DA11DB040B195D1
:10414000AA0CBB1CCC1CDD1CEE1CFF1C001F990B19
:10415000A20EB31EC41ED51EE61EF71E081F9040F9
:10416000229C9001339CA001449CB001559C210FDE
:10417000208BA31EA18AB41EB28AC51EC38AD61E76
:10418000D48AE71EE58AF01CF68A011D078B904051
:1041900011273327399CA00DB11D311F489CA00D5C
:1041A000B11D311F579CA00DB11D311F412F499CDE
:1041B000B00D311D411F589CB00D311D411F679C32
:1041C000B00D311D411F512F599C300D411D511F04
:1041D000689C300D411D511F612F699C400D511D80
:1041E000611F789C400D511D611F712F799C500DEE
:1041F000611D711F8827899C600D711D811FAA1F79
:10420000BB1F331F441F551F661F771F881F669CE7
:104210009195090E111E5001779C6001889C7001D8
:10422000999CAA0DA08FBB1DB18F3C1D328F4D1DD7
:10423000438F5E1D548F6F1D658F701D768F811D9E
:10424000878FA880B980CA80DB80EC80FD800E81DA
:104250001F812A183B084C085D086E087F08800AF9
:10426000910ABB27AA0B2A263A264A265A266A26EC
:104270007A268A269A26A1952A0E3B1E4B1E5B1E85
:104280006B1E7B1E8B1E9B1EAA27239C50016D015B
:10429000249CB00CC11C7D01259CC00CD11C349CFD
:1042A000C00CD11CEA1E269CD00CE11C359CD00C05
:1042B000E11CFA1E8D01279CE00CF11C0A1F369CA4
:1042C000E00CF11C0A1F459CE00CF11C0A1F289C05
:1042D000F00C011D1A1F379CF00C011D1A1F469C83
:1042E000F00C011D1A1F9D01299C000D111D2A1F94
:1042F000389C000D111D2A1F479C000D111D2A1FFF
:10430000569C000D111D2A1FAA1CBB1CCC1CDD1CB9
:10431000EE1CFF1C001F990B229CE001339CA001A6
:10432000449CB001559CAD0EB41EC51ED61EE71EA2
:10433000F01C011D9A0B399C100D211D3A1F489C41
:10434000100D211D3A1F579C100D211D3A1FAD0164
:10435000499C200D311D4A1F589C200D311D4A1FBC
:10436000679C200D311D4A1F599C300D411D5A1F5D
:10437000689C300D411D5A1FBD01699C400D511DA7
:104380006A1F789C400D511D6A1F799C500D611D5C
:104390007A1F8827899C600D711D8A1F111F221F9B
:1043A000331F441F551F661F771F881F669C9195FA
:1043B000090E1A1E1001779C2001889C3001999CDF
:1043C000120D231D341D451D561D671D701D811DB9
:1043D00020883188428853886488758886889788C1
:1043E000C219A308B408C508D608E708F8080909DF
:1043F0000008D081DC1BD087D181DA09D187D28136
:10440000DB09D287D381DC09D387D481DD09D48746
:10441000D581DE09D587D681DF09D687D781D00B34
:10442000D787210A320A430A540A650A760A870A9C
:10443000980AAA0BA08CB18CC28CD38CE48CF58C1E
:10444000068D178D000C2A1C3B1C4C1C5D1C6E1C21
:104450007F1C801E911E208A318A428A538A648A78
:10446000758A868A978A2227A21FBA2FB595AA0E27
:10447000BB1ECB1EDB1EEB1EFB1E0B1F1B1FA08ECD
:10448000B18EC28ED38EE48EF58E068F178FDF919C
:10449000CF91DF91CF91088019802A803B804C809A
:1044A0005D806E807F8088849984AA84BB84CC845C
:1044B000DD84EE84FF840081001A0181100A0281EC
:1044C000200A0381300A0481400A0581500A0681CE
:1044D000600A0781700A0085800A0185900A0285BA
:1044E000A00A0385B00A0485C00A0585D00A06859E
:1044F000E00A0785F00A000B18A1010E088A09A03E
:10450000101C198A1AA0211C2A8A2BA0321C3B8A53
:104510003CA0431C4C8A4DA0541C5D8A5EA0651CC7
:104520006E8A6FA0761C7F8A78A4871C888E89A4E7
:10453000981C998E9AA4A91CAA8EABA4BA1CBB8EF7
:10454000BCA4CB1CCC8ECDA4DC1CDD8EDEA4ED1C6B
:10455000EE8EEFA4FE1CFF8E2227221F06950089F7
:10456000100B0189000A0289100A0389200A0489B4
:10457000300A0589400A0689500A0789600A008DB9
:10458000700A018D800A028D900A038DA00A048DA5
:10459000B00A058DC00A068DD00A078DE00AAA0B65
:1045A000BB0B269538A9131F18A319A9011E09A230
:1045B0000AA8101C1AA21BA8211C2BA22CA8321C72
:1045C0003CA23DA8431C4DA24EA8541C5EA25FA86D
:1045D000651C6FA268AC761C78A679AC871C89A68E
:1045E0008AAC981C9AA69BACA91CABA6ACACBA1C16
:1045F000BCA6BDACCB1CCDA6CEACDC1CDEA6DFAC15
:10460000ED1CEFA6A21FB21F3A0F1B1F0B1E1B1E95
:104610002B1E3B1E4B1E5B1E6B1E7B1E8B1E9B1E92
:10462000AB1EBB1ECB1EDB1E38AB19AB0AAA1BAAE6
:104630002CAA3DAA4EAA5FAA68AE79AE8AAE9BAEFE
:10464000ACAEBDAECEAEDFAE1124DF91CF911F91E7
:104650000F91FF90EF90DF90CF90BF90AF909F9021
:104660008F907F906F905F904F903F902F90089524
:104670001092C50089E18093C40088E18093C10055
:10468000089590916E0291110BC01092C50099E1AE
:104690009093C40098E19093C10091E090936E02D2
:1046A0009091C00095FFFCCF8093C6000895FC0157
:1046B00020812223C9F0319649E138E191E08091CF
:1046C0006E02811108C01092C5004093C40030935F
:1046D000C10090936E028091C00085FFFCCF2093B3
:1046E000C60021912111EBCF0895A4E0B0E0EBE7E3
:1046F000F3E20C94C2286115710509F43FC08C01E6
:104700005C01A60EB71ECE0101966C018DE4E82E69
:1047100082E0F82E99E1792E28E1822E9924939453
:10472000F80181918F011F928F93FF92EF92DF9298
:10473000CF920E94642999810F900F900F900F9053
:104740000F900F909923B9F0FE01329680916E027E
:10475000811108C01092C5007092C4008092C100FF
:1047600090926E028091C00085FFFCCF9093C600AE
:1047700091919111EBCF0A151B0591F62496EDE06E
:104780000C94DE28ACE1B0E0E8ECF3E20C94BD2838
:10479000922E832E742E652E562E472E382E292EBD
:1047A000188EA0E00E94FD2809F463C0CE0148964F
:1047B0009C8F8B8FE6E1F0E0FA8FE98F3AE0A32E31
:1047C000B12CC12CD12CE12CF12C00E010E0292DD2
:1047D000382D472D562D652D742D832D922D0E9439
:1047E0005E28205DEB8DFC8D2293FC8FEB8F898DF5
:1047F0009A8D01979A8F898F292D382D472D562D07
:10480000652D742D832D922D0E946028922E832E6B
:10481000742E652E562E472E382E292EA0E00E948B
:10482000FD2861F6898D9A8D0196FE013196E80F7B
:10483000F91F90819923C9F0319649E138E121E0CF
:1048400080916E02811108C01092C5004093C4008F
:104850003093C10020936E028091C00085FFFCCF91
:104860009093C60091919111EBCF6C96E2E10C947C
:10487000D92880916E0281110BC01092C50089E188
:104880008093C40088E18093C10081E080936E0230
:104890008091C00085FFFCCF80E38093C60087E154
:1048A00090E0C3CFA2E2B0E0E8E5F4E20C94BD28CA
:1048B0003A012901FC0120812223D1F0FC0131962B
:1048C00049E138E191E080916E02811108C01092B7
:1048D000C5004093C4003093C10090936E02809154
:1048E000C00085FFFCCF2093C60021912111EBCFA2
:1048F000EAE6F2E09AE349E138E121E080916E02D4
:10490000811108C01092C5004093C4003093C100CB
:1049100020936E028091C00085FFFCCF9093C6006B
:1049200091919111EBCF6F3FFFEF7F0709F0EDC041
:10493000C20101979AA389A36D8E7E8E18A21F8E45
:104940009C01EF8DF8A1E217F30708F0ABC09F01BF
:104950002F5F3F4F38A32F8FED8DFE8D2085CF0128
:1049600008969E8F8D8F3185428553856485758528
:1049700086859785A080B180C280D380E480F58051
:10498000068117810E94F428922E832E742E652EA4
:10499000562E472E382E292E188EA0E00E94FD2874
:1049A00009F49AC0CE0148969C8F8B8FE6E1F0E027
:1049B000FA8FE98F4AE0A42EB12CC12CD12CE12C26
:1049C000F12C00E010E0292D382D472D562D652DB6
:1049D000742D832D922D0E945E28205DEB8DFC8D21
:1049E0002293FC8FEB8F298D3A8D215031093A8F1C
:1049F000298F292D382D472D562D652D742D832D6A
:104A0000922D0E946028922E832E742E652E562E93
:104A1000472E382E292EA0E00E94FD2859F6E98D58
:104A2000FA8D319681E090E08C0F9D1FE80FF91F01
:104A300090819923C9F0319680916E0281110BC04B
:104A40001092C50029E12093C40038E13093C100E1
:104A500081E080936E028091C00085FFFCCF90932F
:104A6000C60091919111E8CF80916E0281110BC027
:104A70001092C50099E19093C400E8E1E093C10071
:104A8000F1E0F0936E028091C00085FFFCCF20E240
:104A90002093C60029A13AA1EF8DF8A1E217F307F0
:104AA00008F455CF80916E0281110BC01092C500A1
:104AB00089E18093C40088E18093C10081E0809304
:104AC0006E028091C00085FFFCCF8AE08093C60013
:104AD000A296E2E10C94D92880916E0281110BC05C
:104AE0001092C50099E19093C400E8E1E093C10001
:104AF000F1E0F0936E028091C00085FFFCCF20E3CF
:104B00002093C600E7E1F0E08DCF80916E02811125
:104B10000BC01092C50089E18093C40088E18093A6
:104B2000C10081E080936E028091C00085FFFCCFC0
:104B30008BE58093C6004B01A12CB12CC12CD12C4C
:104B400076019B0140E050E060E070E080E090E0A2
:104B50000E94C223E4E5F2E09DE549E138E121E06D
:104B600080916E02811108C01092C5004093C4006C
:104B70003093C10020936E028091C00085FFFCCF6E
:104B80009093C60091919111EBCFD2CEA0E2B0E00C
:104B9000ECECF5E20C94BD2858A34F8FFC0120816A
:104BA0002223D1F0FC01319649E138E191E0809176
:104BB0006E02811108C01092C5004093C40030936A
:104BC000C10090936E028091C00085FFFCCF2093BE
:104BD000C60021912111EBCFEAE6F2E09AE349E128
:104BE00038E121E080916E02811108C01092C50069
:104BF0004093C4003093C10020936E028091C000A6
:104C000085FFFCCF9093C60091919111EBCF6F3F40
:104C1000FFEF7F0709F452C180916E0281110BC032
:104C20001092C50089E18093C40088E18093C1009F
:104C300081E080936E028091C00085FFFCCF8BE500
:104C40008093C6001B01412C512C612C712C430117
:104C5000188E9B0140E050E060E070E080E090E062
:104C6000A0E00E94FD2809F410C1CE0148969C8F57
:104C70008B8FE6E1F0E0FA8FE98F6AE0A62EB12C87
:104C8000C12CD12CE12CF12C00E010E09101A2010B
:104C9000B301C4010E945E28205DEB8DFC8D229340
:104CA000FC8FEB8F898D9A8D01979A8F898F910157
:104CB000A201B301C4010E94602819012A013B012D
:104CC0004C01A0E00E94FD28C1F6E98DFA8D3196D5
:104CD000CE0101969E8F8D8FE80FF91F9081992349
:104CE000C9F0319649E138E121E080916E028111ED
:104CF00008C01092C5004093C4003093C1002093B7
:104D00006E028091C00085FFFCCF9093C600919108
:104D10009111EBCFE4E5F2E09DE549E138E121E0D6
:104D200080916E02811108C01092C5004093C400AA
:104D30003093C10020936E028091C00085FFFCCFAC
:104D40009093C60091919111EBCFEF8DF8A11F01C7
:104D5000412C512C612C712C4301188E9F0140E095
:104D600050E060E070E080E090E0A0E00E94FD286C
:104D700009F472C0FE017896FC8FEB8F86E190E01B
:104D80009A8F898F5AE0A52EB12CC12CD12CE12C01
:104D9000F12C00E010E09101A201B301C4010E94D6
:104DA0005E28205DEB8DFC8D2293FC8FEB8F898D2F
:104DB0009A8D01979A8F898F9101A201B301C40145
:104DC0000E94602819012A013B014C01A0E00E94C9
:104DD000FD28C1F6E98DFA8D31968D8D9E8DE80FF7
:104DE000F91F90819923C9F0319649E138E121E01A
:104DF00080916E02811108C01092C5004093C400DA
:104E00003093C10020936E028091C00085FFFCCFDB
:104E10009093C60091919111EBCFE7E5F2E090E21B
:104E200049E138E121E080916E02811108C01092C1
:104E3000C5004093C4003093C10020936E0280915E
:104E4000C00085FFFCCF9093C60091919111EBCFEC
:104E5000A096E2E10C94D92880916E0281110BC0DA
:104E60001092C50089E18093C40088E18093C1005D
:104E700081E080936E028091C00085FFFCCF80E3CB
:104E80008093C600E7E1F0E0A8CF80916E02811127
:104E90000BC01092C50089E18093C40088E1809323
:104EA000C10081E080936E028091C00085FFFCCF3D
:104EB00080E38093C600E7E1F0E00ACFCE010196DF
:104EC0009E8F8D8F42CF84E00E944123FFCFEC0163
:104ED00084E692E00E945723CE010E94572382E687
:104EE00092E00E9457230E9463278FEF9FEF0E945A
:104EF000972CA1E0B0E0EFE7F7E20C94C9281092FC
:104F00009102CE0101967C0105EB12E00E94572927
:104F100060939402F0927002E0926F0295EBE916B2
:104F200092E0F90698F0F70102C060919402CF0177
:104F300001979093700280936F026083E0916F02FB
:104F4000F091700222E0E53BF20778F745E952E084
:104F500061E772E0CA010E94EA01309194028091F7
:104F6000B5023813A5C081E20F3F180711F008F011
:104F70009FC080E090E0E5EBF2E005C021E2EF3F6A
:104F8000F20709F028F43196019620813217B1F327
:104F9000A701481B590B455B524050939302409325
:104FA000920280916C0290916D024817590708F4A3
:104FB000AC0150936D0240936C02809191028F5F1F
:104FC00080939102853008F4A1CF6FEF7FEF84E2E8
:104FD00092E00E94C625109291020E945729609388
:104FE0009402F0927002E0926F0285EBE81682E084
:104FF000F80698F0F70102C060919402CF01019782
:105000009093700280936F026083E0916F02F09141
:10501000700292E0E53BF90778F761E772E085E915
:1050200092E00E943402309194028091B5023813CC
:1050300042C080E090E021E20F3F120709F068F4DF
:10504000E5EBF2E005C021E2EF3FF20709F028F4BA
:105050003196019620813217B1F3A701481B590BF5
:10506000455B5240509393024093920280916C02B0
:1050700090916D024817590708F4AC0150936D02E6
:1050800040936C02809191028F5F809391028530F2
:1050900008F4A3CF6FEF7FEF86E392E00E94C6256E
:1050A0000E94632780E090E02196E6E00C94E528DA
:1050B00080E090E06DCF80E090E0CFCF689401C0B9
:1050C000E8948F929F92CF93DF930E946C28DF9198
:1050D000CF919F908F90089588249924F401E40142
:1050E000B0E49F93AA279A158B049C04ED05FE0556
:1050F000CF05D007A10798F4AD2FDC2FCF2FFE2FBF
:10510000E92D982C892E982F872F762F652F542FD5
:10511000432F322F2227B85031F7BF9127C01B2EC3
:10512000BF91BB27220F331F441F551F661F771FD8
:10513000881F991F881C991CEE1FFF1FCC1FDD1FA5
:10514000AA1FBB1F8A149B04EC05FD05CE05DF05D5
:10515000A007B10748F08A189B08EC09FD09CE09A1
:10516000DF09A00BB10B21601A94E1F62EF4940133
:10517000AF01BE01CD01000C08952F923F924F92D6
:105180005F926F927F928F929F92AF92BF92CF92D7
:10519000DF92EF92FF920F931F93CF93DF93CDB7E0
:1051A000DEB7CA1BDB0B0FB6F894DEBF0FBECDBF58
:1051B00019942A88398848885F846E847D848C8419
:1051C0009B84AA84B984C884DF80EE80FD800C8132
:1051D0001B81AA81B981CE0FD11D0FB6F894DEBF15
:1051E0000FBECDBFED0108952A193B094C095D0999
:1051F0006E097F09800B910B08950024A7FD009490
:105200002A1730054005500560057005800590059A
:1052100008958F929F92AF92BF92CF92DF92EF92BA
:10522000FF92CF93DF93EC01688179818A819B8122
:10523000611571058105910521F464E279ED8BE535
:1052400097E02DE133EF41E050E00E94342C49011A
:105250005A019B01AC01A7EAB1E40E94532C6B01F7
:105260007C01ACEEB4EFA50194010E94612CC60E46
:10527000D71EE81EF91EF7FE06C081E0C81AD10845
:10528000E10880E8F80AC882D982EA82FB82C70175
:10529000B6019F77DF91CF91FF90EF90DF90CF9095
:1052A000BF90AF909F908F9008950C94092980E053
:1052B00092E00C940929609300027093010280939C
:1052C00002029093030208950F931F93CF93DF93ED
:1052D000CDB7DEB72E970FB6F894DEBF0FBECDBFA9
:1052E0000E891F8986E08C831A8309838FEF9FE7DD
:1052F0009E838D83AE01465E5F4F688D798DCE01B2
:1053000001960E949329EF81F885E00FF11F10822A
:105310002E960FB6F894DEBF0FBECDBFDF91CF91B2
:105320001F910F9108952F923F924F925F926F922B
:105330007F928F929F92AF92BF92CF92DF92EF9225
:10534000FF920F931F93CF93DF93CDB7DEB72C97C8
:105350000FB6F894DEBF0FBECDBF7C016B018A0192
:10536000FC0117821682838181FFBDC1CE010196A7
:105370004C01F7019381F60193FD859193FF819193
:105380006F01882309F4ABC1853239F493FD85910F
:1053900093FF81916F01853229F4B70190E00E945B
:1053A000A42BE7CF512C312C20E02032A0F48B32FB
:1053B00069F030F4803259F0833269F420612CC0F6
:1053C0008D3239F0803339F4216026C022602460A8
:1053D00023C0286021C027FD27C030ED380F3A30A8
:1053E00078F426FF06C0FAE05F9E300D1124532E9C
:1053F00013C08AE0389E300D1124332E20620CC079
:105400008E3221F426FD6BC1206406C08C3611F467
:10541000206802C0883641F4F60193FD859193FF20
:1054200081916F018111C1CF982F9F7D9554933049
:1054300028F40C5F1F4FFFE3F9830DC0833631F072
:10544000833771F0833509F05BC022C0F801808199
:1054500089830E5F1F4F44244394512C540115C07F
:105460003801F2E06F0E711CF801A080B18026FFB8
:1054700003C0652D70E002C06FEF7FEFC5012C8780
:105480000E94992B2C0183012C852F77222E17C087
:105490003801F2E06F0E711CF801A080B18026FF88
:1054A00003C0652D70E002C06FEF7FEFC5012C8750
:1054B0000E948E2B2C012C852068222E830123FC38
:1054C0001BC0832D90E048165906B0F4B70180E266
:1054D00090E00E94A42B3A94F4CFF50127FC85912B
:1054E00027FE81915F01B70190E00E94A42B31104B
:1054F0003A94F1E04F1A51084114510471F7E5C094
:10550000843611F0893639F5F80127FF07C060812C
:105510007181828193810C5F1F4F08C0608171810E
:10552000882777FD8095982F0E5F1F4F2F76B22E1C
:1055300097FF09C090958095709561957F4F8F4F2B
:105540009F4F2068B22E2AE030E0A4010E94D62BA3
:10555000A82EA81844C0853729F42F7EB22E2AE041
:1055600030E025C0F22FF97FBF2E8F36C1F018F43E
:10557000883579F0B4C0803719F0883721F0AFC092
:105580002F2F2061B22EB4FE0DC08B2D8460B82E5B
:1055900009C024FF0AC09F2F9660B92E06C028E0DC
:1055A00030E005C020E130E002C020E132E0F80147
:1055B000B7FE07C060817181828193810C5F1F4FAC
:1055C00006C06081718180E090E00E5F1F4FA401F2
:1055D0000E94D62BA82EA818FB2DFF77BF2EB6FE53
:1055E0000BC02B2D2E7FA51450F4B4FE0AC0B2FCC4
:1055F00008C02B2D2E7E05C07A2C2B2D03C07A2CB3
:1056000001C0752C24FF0DC0FE01EA0DF11D808143
:10561000803311F4297E09C022FF06C0739473946D
:1056200004C0822F867809F0739423FD13C020FFF5
:1056300006C05A2C731418F4530C5718732C731497
:1056400068F4B70180E290E02C870E94A42B739449
:105650002C85F5CF731410F4371801C0312C24FFBA
:1056600012C0B70180E390E02C870E94A42B2C8508
:1056700022FF17C021FF03C088E590E002C088E741
:1056800090E0B7010CC0822F867859F021FD02C04E
:1056900080E201C08BE227FD8DE2B70190E00E941D
:1056A000A42BA51438F4B70180E390E00E94A42B4A
:1056B0005A94F7CFAA94F401EA0DF11D8081B70145
:1056C00090E00E94A42BA110F5CF332009F451CE15
:1056D000B70180E290E00E94A42B3A94F6CFF70144
:1056E0008681978102C08FEF9FEF2C960FB6F894BA
:1056F000DEBF0FBECDBFDF91CF911F910F91FF9005
:10570000EF90DF90CF90BF90AF909F908F907F9061
:105710006F905F904F903F902F900895FC010590FF
:10572000615070400110D8F7809590958E0F9F1FA3
:105730000895FC016150704001900110D8F78095E8
:1057400090958E0F9F1F08950F931F93CF93DF9314
:10575000182F092FEB018B8181FD03C08FEF9FEF85
:1057600020C082FF10C04E815F812C813D81421795
:1057700053077CF4E881F9819F012F5F3F4F398304
:105780002883108306C0E885F985812F1995892B18
:1057900029F72E813F812F5F3F4F3F832E83812F3B
:1057A000902FDF91CF911F910F910895FA01AA27B1
:1057B000283051F1203181F1E8946F936E7F6E5F54
:1057C0007F4F8F4F9F4FAF4FB1E03ED0B4E03CD002
:1057D000670F781F891F9A1FA11D680F791F8A1FE5
:1057E000911DA11D6A0F711D811D911DA11D20D04C
:1057F00009F468943F912AE0269F11243019305D06
:105800003193DEF6CF010895462F4770405D4193F6
:10581000B3E00FD0C9F7F6CF462F4F70405D4A3343
:1058200018F0495D31FD4052419302D0A9F7EACF0B
:10583000B4E0A6959795879577956795BA95C9F73A
:1058400000976105710508959B01AC010A2E06942D
:105850005795479537952795BA95C9F7620F731FE6
:10586000841F951FA01D0895052E97FB1EF400941C
:105870000E944B2C57FD07D00E94662C07FC03D0DA
:105880004EF40C944B2C50954095309521953F4FFC
:105890004F4F5F4F089590958095709561957F4F1C
:1058A0008F4F9F4F08950E94882CA59F900DB49F05
:1058B000900DA49F800D911D11240895B7FF0C94A5
:1058C000532C0E94532C821B930B0895A1E21A2E95
:1058D000AA1BBB1BFD010DC0AA1FBB1FEE1FFF1F94
:1058E000A217B307E407F50720F0A21BB30BE40BE4
:1058F000F50B661F771F881F991F1A9469F760952B
:105900007095809590959B01AC01BD01CF010895E4
:10591000A29FB001B39FC001A39F700D811D1124F0
:10592000911DB29F700D811D1124911D0895F89451
:02593000FFCFA7
:10593200010000000900000000000000000000005B
:105942000000000000000000000000000000000055
:105952000000000063727970746F5F7363616C6141
:10596200726D756C740063727970746F5F736361CA
:105972006C61726D756C745F6261736500253032A3
:105982007820005D200020737461636B206279745B
:0C59920065730A004552524F523A200043
:00000001FF
